{
  "contractName": "CryptoDonation",
  "abi": [
    {
      "inputs": [
        {
          "internalType": "uint256",
          "name": "",
          "type": "uint256"
        }
      ],
      "name": "campaigns",
      "outputs": [
        {
          "internalType": "address",
          "name": "owner",
          "type": "address"
        },
        {
          "internalType": "string",
          "name": "title",
          "type": "string"
        },
        {
          "internalType": "string",
          "name": "description",
          "type": "string"
        },
        {
          "internalType": "uint256",
          "name": "target",
          "type": "uint256"
        },
        {
          "internalType": "uint256",
          "name": "amountCollected",
          "type": "uint256"
        },
        {
          "internalType": "string",
          "name": "image",
          "type": "string"
        }
      ],
      "stateMutability": "view",
      "type": "function",
      "constant": true
    },
    {
      "inputs": [],
      "name": "numberOfCampaigns",
      "outputs": [
        {
          "internalType": "uint256",
          "name": "",
          "type": "uint256"
        }
      ],
      "stateMutability": "view",
      "type": "function",
      "constant": true
    },
    {
      "inputs": [
        {
          "internalType": "address",
          "name": "_owner",
          "type": "address"
        },
        {
          "internalType": "string",
          "name": "_title",
          "type": "string"
        },
        {
          "internalType": "string",
          "name": "_description",
          "type": "string"
        },
        {
          "internalType": "uint256",
          "name": "_target",
          "type": "uint256"
        },
        {
          "internalType": "string",
          "name": "_image",
          "type": "string"
        }
      ],
      "name": "createCampaign",
      "outputs": [
        {
          "internalType": "uint256",
          "name": "",
          "type": "uint256"
        }
      ],
      "stateMutability": "nonpayable",
      "type": "function"
    },
    {
      "inputs": [
        {
          "internalType": "uint256",
          "name": "_id",
          "type": "uint256"
        }
      ],
      "name": "donateToCampaign",
      "outputs": [],
      "stateMutability": "payable",
      "type": "function",
      "payable": true
    },
    {
      "inputs": [
        {
          "internalType": "uint256",
          "name": "_id",
          "type": "uint256"
        }
      ],
      "name": "getDonators",
      "outputs": [
        {
          "internalType": "address[]",
          "name": "",
          "type": "address[]"
        },
        {
          "internalType": "uint256[]",
          "name": "",
          "type": "uint256[]"
        }
      ],
      "stateMutability": "view",
      "type": "function",
      "constant": true
    },
    {
      "inputs": [],
      "name": "getCampaigns",
      "outputs": [
        {
          "components": [
            {
              "internalType": "address",
              "name": "owner",
              "type": "address"
            },
            {
              "internalType": "string",
              "name": "title",
              "type": "string"
            },
            {
              "internalType": "string",
              "name": "description",
              "type": "string"
            },
            {
              "internalType": "uint256",
              "name": "target",
              "type": "uint256"
            },
            {
              "internalType": "uint256",
              "name": "amountCollected",
              "type": "uint256"
            },
            {
              "internalType": "string",
              "name": "image",
              "type": "string"
            },
            {
              "internalType": "address[]",
              "name": "donators",
              "type": "address[]"
            },
            {
              "internalType": "uint256[]",
              "name": "donations",
              "type": "uint256[]"
            }
          ],
          "internalType": "struct CryptoDonation.Campaign[]",
          "name": "",
          "type": "tuple[]"
        }
      ],
      "stateMutability": "view",
      "type": "function",
      "constant": true
    }
  ],
  "bytecode": "0x6080604052600060015534801561001557600080fd5b506117fc806100256000396000f3fe6080604052600436106100555760003560e01c806307ca140d1461005a5780630fa91fa9146100855780631227d335146100c3578063141961bc1461010057806342a4fda814610142578063a6b036331461015e575b600080fd5b34801561006657600080fd5b5061006f610189565b60405161007c9190610b0a565b60405180910390f35b34801561009157600080fd5b506100ac60048036038101906100a79190610b65565b61018f565b6040516100ba929190610d40565b60405180910390f35b3480156100cf57600080fd5b506100ea60048036038101906100e59190610ee9565b61029f565b6040516100f79190610b0a565b60405180910390f35b34801561010c57600080fd5b5061012760048036038101906101229190610b65565b610376565b60405161013996959493929190611046565b60405180910390f35b61015c60048036038101906101579190610b65565b61056a565b005b34801561016a57600080fd5b506101736106ca565b6040516101809190611372565b60405180910390f35b60015481565b6060806000808481526020019081526020016000206006016000808581526020019081526020016000206007018180548060200260200160405190810160405280929190818152602001828054801561023d57602002820191906000526020600020905b8160009054906101000a900473ffffffffffffffffffffffffffffffffffffffff1673ffffffffffffffffffffffffffffffffffffffff16815260200190600101908083116101f3575b505050505091508080548060200260200160405190810160405280929190818152602001828054801561028f57602002820191906000526020600020905b81548152602001906001019080831161027b575b5050505050905091509150915091565b60008060008060015481526020019081526020016000209050868160000160006101000a81548173ffffffffffffffffffffffffffffffffffffffff021916908373ffffffffffffffffffffffffffffffffffffffff1602179055508581600101908161030c91906115a0565b508481600201908161031e91906115a0565b50838160030181905550600081600401819055508281600501908161034391906115a0565b5060016000815480929190610357906116a1565b91905055506001805461036a91906116e9565b91505095945050505050565b60006020528060005260406000206000915090508060000160009054906101000a900473ffffffffffffffffffffffffffffffffffffffff16908060010180546103bf906113c3565b80601f01602080910402602001604051908101604052809291908181526020018280546103eb906113c3565b80156104385780601f1061040d57610100808354040283529160200191610438565b820191906000526020600020905b81548152906001019060200180831161041b57829003601f168201915b50505050509080600201805461044d906113c3565b80601f0160208091040260200160405190810160405280929190818152602001828054610479906113c3565b80156104c65780601f1061049b576101008083540402835291602001916104c6565b820191906000526020600020905b8154815290600101906020018083116104a957829003601f168201915b5050505050908060030154908060040154908060050180546104e7906113c3565b80601f0160208091040260200160405190810160405280929190818152602001828054610513906113c3565b80156105605780601f1061053557610100808354040283529160200191610560565b820191906000526020600020905b81548152906001019060200180831161054357829003601f168201915b5050505050905086565b60003490506000806000848152602001908152602001600020905080600601339080600181540180825580915050600190039060005260206000200160009091909190916101000a81548173ffffffffffffffffffffffffffffffffffffffff021916908373ffffffffffffffffffffffffffffffffffffffff1602179055508060070182908060018154018082558091505060019003906000526020600020016000909190919091505560008160000160009054906101000a900473ffffffffffffffffffffffffffffffffffffffff1673ffffffffffffffffffffffffffffffffffffffff168360405161065f9061174e565b60006040518083038185875af1925050503d806000811461069c576040519150601f19603f3d011682016040523d82523d6000602084013e6106a1565b606091505b5050905080156106c4578282600401546106bb9190611763565b82600401819055505b50505050565b6060600060015467ffffffffffffffff8111156106ea576106e9610dbe565b5b60405190808252806020026020018201604052801561072357816020015b610710610a96565b8152602001906001900390816107085790505b50905060005b600154811015610a8e576000806000838152602001908152602001600020905080604051806101000160405290816000820160009054906101000a900473ffffffffffffffffffffffffffffffffffffffff1673ffffffffffffffffffffffffffffffffffffffff1673ffffffffffffffffffffffffffffffffffffffff1681526020016001820180546107bc906113c3565b80601f01602080910402602001604051908101604052809291908181526020018280546107e8906113c3565b80156108355780601f1061080a57610100808354040283529160200191610835565b820191906000526020600020905b81548152906001019060200180831161081857829003601f168201915b5050505050815260200160028201805461084e906113c3565b80601f016020809104026020016040519081016040528092919081815260200182805461087a906113c3565b80156108c75780601f1061089c576101008083540402835291602001916108c7565b820191906000526020600020905b8154815290600101906020018083116108aa57829003601f168201915b5050505050815260200160038201548152602001600482015481526020016005820180546108f4906113c3565b80601f0160208091040260200160405190810160405280929190818152602001828054610920906113c3565b801561096d5780601f106109425761010080835404028352916020019161096d565b820191906000526020600020905b81548152906001019060200180831161095057829003601f168201915b50505050508152602001600682018054806020026020016040519081016040528092919081815260200182805480156109fb57602002820191906000526020600020905b8160009054906101000a900473ffffffffffffffffffffffffffffffffffffffff1673ffffffffffffffffffffffffffffffffffffffff16815260200190600101908083116109b1575b5050505050815260200160078201805480602002602001604051908101604052809291908181526020018280548015610a5357602002820191906000526020600020905b815481526020019060010190808311610a3f575b505050505081525050838381518110610a6f57610a6e611797565b5b6020026020010181905250508080610a86906116a1565b915050610729565b508091505090565b604051806101000160405280600073ffffffffffffffffffffffffffffffffffffffff168152602001606081526020016060815260200160008152602001600081526020016060815260200160608152602001606081525090565b6000819050919050565b610b0481610af1565b82525050565b6000602082019050610b1f6000830184610afb565b92915050565b6000604051905090565b600080fd5b600080fd5b610b4281610af1565b8114610b4d57600080fd5b50565b600081359050610b5f81610b39565b92915050565b600060208284031215610b7b57610b7a610b2f565b5b6000610b8984828501610b50565b91505092915050565b600081519050919050565b600082825260208201905092915050565b6000819050602082019050919050565b600073ffffffffffffffffffffffffffffffffffffffff82169050919050565b6000610be982610bbe565b9050919050565b610bf981610bde565b82525050565b6000610c0b8383610bf0565b60208301905092915050565b6000602082019050919050565b6000610c2f82610b92565b610c398185610b9d565b9350610c4483610bae565b8060005b83811015610c75578151610c5c8882610bff565b9750610c6783610c17565b925050600181019050610c48565b5085935050505092915050565b600081519050919050565b600082825260208201905092915050565b6000819050602082019050919050565b610cb781610af1565b82525050565b6000610cc98383610cae565b60208301905092915050565b6000602082019050919050565b6000610ced82610c82565b610cf78185610c8d565b9350610d0283610c9e565b8060005b83811015610d33578151610d1a8882610cbd565b9750610d2583610cd5565b925050600181019050610d06565b5085935050505092915050565b60006040820190508181036000830152610d5a8185610c24565b90508181036020830152610d6e8184610ce2565b90509392505050565b610d8081610bde565b8114610d8b57600080fd5b50565b600081359050610d9d81610d77565b92915050565b600080fd5b600080fd5b6000601f19601f8301169050919050565b7f4e487b7100000000000000000000000000000000000000000000000000000000600052604160045260246000fd5b610df682610dad565b810181811067ffffffffffffffff82111715610e1557610e14610dbe565b5b80604052505050565b6000610e28610b25565b9050610e348282610ded565b919050565b600067ffffffffffffffff821115610e5457610e53610dbe565b5b610e5d82610dad565b9050602081019050919050565b82818337600083830152505050565b6000610e8c610e8784610e39565b610e1e565b905082815260208101848484011115610ea857610ea7610da8565b5b610eb3848285610e6a565b509392505050565b600082601f830112610ed057610ecf610da3565b5b8135610ee0848260208601610e79565b91505092915050565b600080600080600060a08688031215610f0557610f04610b2f565b5b6000610f1388828901610d8e565b955050602086013567ffffffffffffffff811115610f3457610f33610b34565b5b610f4088828901610ebb565b945050604086013567ffffffffffffffff811115610f6157610f60610b34565b5b610f6d88828901610ebb565b9350506060610f7e88828901610b50565b925050608086013567ffffffffffffffff811115610f9f57610f9e610b34565b5b610fab88828901610ebb565b9150509295509295909350565b610fc181610bde565b82525050565b600081519050919050565b600082825260208201905092915050565b60005b83811015611001578082015181840152602081019050610fe6565b60008484015250505050565b600061101882610fc7565b6110228185610fd2565b9350611032818560208601610fe3565b61103b81610dad565b840191505092915050565b600060c08201905061105b6000830189610fb8565b818103602083015261106d818861100d565b90508181036040830152611081818761100d565b90506110906060830186610afb565b61109d6080830185610afb565b81810360a08301526110af818461100d565b9050979650505050505050565b600081519050919050565b600082825260208201905092915050565b6000819050602082019050919050565b600082825260208201905092915050565b600061110482610fc7565b61110e81856110e8565b935061111e818560208601610fe3565b61112781610dad565b840191505092915050565b600082825260208201905092915050565b600061114e82610b92565b6111588185611132565b935061116383610bae565b8060005b8381101561119457815161117b8882610bff565b975061118683610c17565b925050600181019050611167565b5085935050505092915050565b600082825260208201905092915050565b60006111bd82610c82565b6111c781856111a1565b93506111d283610c9e565b8060005b838110156112035781516111ea8882610cbd565b97506111f583610cd5565b9250506001810190506111d6565b5085935050505092915050565b6000610100830160008301516112296000860182610bf0565b506020830151848203602086015261124182826110f9565b9150506040830151848203604086015261125b82826110f9565b91505060608301516112706060860182610cae565b5060808301516112836080860182610cae565b5060a083015184820360a086015261129b82826110f9565b91505060c083015184820360c08601526112b58282611143565b91505060e083015184820360e08601526112cf82826111b2565b9150508091505092915050565b60006112e88383611210565b905092915050565b6000602082019050919050565b6000611308826110bc565b61131281856110c7565b935083602082028501611324856110d8565b8060005b85811015611360578484038952815161134185826112dc565b945061134c836112f0565b925060208a01995050600181019050611328565b50829750879550505050505092915050565b6000602082019050818103600083015261138c81846112fd565b905092915050565b7f4e487b7100000000000000000000000000000000000000000000000000000000600052602260045260246000fd5b600060028204905060018216806113db57607f821691505b6020821081036113ee576113ed611394565b5b50919050565b60008190508160005260206000209050919050565b60006020601f8301049050919050565b600082821b905092915050565b6000600883026114567fffffffffffffffffffffffffffffffffffffffffffffffffffffffffffffffff82611419565b6114608683611419565b95508019841693508086168417925050509392505050565b6000819050919050565b600061149d61149861149384610af1565b611478565b610af1565b9050919050565b6000819050919050565b6114b783611482565b6114cb6114c3826114a4565b848454611426565b825550505050565b600090565b6114e06114d3565b6114eb8184846114ae565b505050565b5b8181101561150f576115046000826114d8565b6001810190506114f1565b5050565b601f82111561155457611525816113f4565b61152e84611409565b8101602085101561153d578190505b61155161154985611409565b8301826114f0565b50505b505050565b600082821c905092915050565b600061157760001984600802611559565b1980831691505092915050565b60006115908383611566565b9150826002028217905092915050565b6115a982610fc7565b67ffffffffffffffff8111156115c2576115c1610dbe565b5b6115cc82546113c3565b6115d7828285611513565b600060209050601f83116001811461160a57600084156115f8578287015190505b6116028582611584565b86555061166a565b601f198416611618866113f4565b60005b828110156116405784890151825560018201915060208501945060208101905061161b565b8683101561165d5784890151611659601f891682611566565b8355505b6001600288020188555050505b505050505050565b7f4e487b7100000000000000000000000000000000000000000000000000000000600052601160045260246000fd5b60006116ac82610af1565b91507fffffffffffffffffffffffffffffffffffffffffffffffffffffffffffffffff82036116de576116dd611672565b5b600182019050919050565b60006116f482610af1565b91506116ff83610af1565b925082820390508181111561171757611716611672565b5b92915050565b600081905092915050565b50565b600061173860008361171d565b915061174382611728565b600082019050919050565b60006117598261172b565b9150819050919050565b600061176e82610af1565b915061177983610af1565b925082820190508082111561179157611790611672565b5b92915050565b7f4e487b7100000000000000000000000000000000000000000000000000000000600052603260045260246000fdfea2646970667358221220053117b64e47b8a19ed4678942c866716538d2a5ac255a1b1cf26987604430cd64736f6c63430008130033",
  "immutableReferences": {},
  "source": "// SPDX-License-Identifier: MIT\npragma solidity >=0.4.22 <0.9.0;\n\ncontract CryptoDonation {\n    struct Campaign {\n        address owner;\n        string title;\n        string description;\n        uint256 target;\n        uint256 amountCollected;\n        string image;\n        address[] donators;\n        uint256[] donations;\n    }\n\n    mapping(uint256 => Campaign) public campaigns;\n\n    uint256 public numberOfCampaigns = 0;\n\n    function createCampaign(\n        address _owner,\n        string memory _title,\n        string memory _description,\n        uint256 _target,\n        string memory _image\n    ) public returns (uint256) {\n        Campaign storage campaign = campaigns[numberOfCampaigns];\n\n        //proceed only if deadline is in future.\n\n        //populate campaign with the parameters\n        campaign.owner = _owner;\n        campaign.title = _title;\n        campaign.description = _description;\n        campaign.target = _target;\n        campaign.amountCollected = 0;\n        campaign.image = _image;\n\n        numberOfCampaigns++;\n\n        //return index of most newly created campaign\n        return numberOfCampaigns - 1;\n    }\n\n    function donateToCampaign(uint256 _id) public payable {\n        uint256 amount = msg.value;\n\n        Campaign storage campaign = campaigns[_id];\n\n        campaign.donators.push(msg.sender);\n        campaign.donations.push(amount);\n\n        (bool sent, ) = payable(campaign.owner).call{value: amount}(\"\");\n\n        if (sent) {\n            campaign.amountCollected = campaign.amountCollected + amount;\n        }\n    }\n\n    function getDonators(\n        uint256 _id\n    ) public view returns (address[] memory, uint256[] memory) {\n        return (campaigns[_id].donators, campaigns[_id].donations);\n    }\n\n    function getCampaigns() public view returns (Campaign[] memory) {\n        //empty array of empty structs which are equal to the number of\n        //total campaigns.\n        Campaign[] memory allCampaigns = new Campaign[](numberOfCampaigns);\n\n        for (uint i = 0; i < numberOfCampaigns; i++) {\n            Campaign storage item = campaigns[i];\n\n            allCampaigns[i] = item;\n        }\n        return allCampaigns;\n    }\n}\n",
  "sourcePath": "C:\\Users\\Chaitanya Padol\\Desktop\\charith\\contracts\\CryptoDonation.sol",
  "compiler": {
    "name": "solc",
    "version": "0.8.19+commit.7dd6d404.Emscripten.clang"
  },
  "schemaVersion": "3.4.13",
  "updatedAt": "2023-03-29T18:58:26.354Z",
  "networkType": "ethereum",
  "devdoc": {
    "kind": "dev",
    "methods": {},
    "version": 1
  },
  "userdoc": {
    "kind": "user",
    "methods": {},
    "version": 1
  }
}